:100000006CC042C285C084C083C082C081C080C031
:100010007FC07EC07DC07CC07BC07AC079C0090231
:1000200022000101008032090400000103010100E7
:10003000092101010001223F000705810308000A90
:100040001201100100000008424231E100010102EA
:1000500000012A036C00610062006F0072007400EE
:10006000610067006500320030003100330020007D
:10007000620061006400670065001E0364006100A7
:1000800073002D006C00610062006F0072002E0092
:100090006F00720067000403090405010906A1014D
:1000A00075019508050719E029E71500250181026A
:1000B0009501750881039505750105081901290544
:1000C0009102950175039103950675081500256544
:1000D0000507190029658100C00011241FBECFE566
:1000E000D2E0DEBFCDBF10E0A0E6B0E0EEEFF5E17C
:1000F00002C005900D92A436B107D9F710E0A4E62E
:10010000B0E001C01D92AC3EB107E1F77CD975CAE1
:1001100077CFCF93C62F2091C00024FF07C0209136
:10012000C10038E823272093C10003C02AE52093AB
:10013000C000DC01E2ECF0E09C2F9E0F8D918193DA
:10014000892F8E1B1816D4F36C2F82EC90E085D18A
:10015000CC5FC093C000CF910895CF93DF9360919F
:10016000D200635067FDD5C08091CE00CCE0D0E0D6
:10017000C81BD109CA52DF4F8091CD008D3209F0E2
:10018000B4C0683009F0C3C083EC8093B5008AE541
:1001900080936200109265008881807621F0CE0104
:1001A00041D39C018AC09A811092BE00898181113D
:1001B00007C01092BF008EEB90E022E030E079C0E3
:1001C000853019F49093D30070C0863009F056C082
:1001D0008B81813049F480E490E09093D10080934A
:1001E000D00022E130E046C0823049F48EE190E058
:1001F0009093D1008093D00022E230E03BC0833066
:1002000009F5911109C086E990E09093D10080939F
:10021000D00024E030E02EC0913049F48AE790E02D
:100220009093D1008093D0002CE130E023C0923035
:10023000F9F482E590E09093D1008093D00028E219
:1002400030E018C0813249F480E390E09093D1000F
:100250008093D00029E030E00DC0823249F48AE971
:1002600090E09093D1008093D0002FE330E002C063
:1002700020E030E080E4809365001FC0883069F0A2
:10028000893019F49093D50010C08A3049F08B3032
:1002900061F48BE48093C10008C085ED90E002C05A
:1002A0008EEB90E021E030E004C08EEB90E020E0A7
:1002B00030E09093D1008093D0002F3F8FEF38072C
:1002C00049F4888187FF02C02E813F8180E88093B6
:1002D000650006C08E819F818217930708F49C01F8
:1002E000309361002093600012C08091650087FF09
:1002F0000EC0CE0189D38F3F21F48EE1809362003E
:1003000006C0882321F010926100109260001092C4
:10031000D2008091620084FF65C08091600090915E
:1003200061008F3F2FEF920709F45CC0BC01893058
:10033000910510F068E070E0861B970B90936100C8
:10034000809360008091B50098E889278093B5007C
:10035000C62F662381F18091650087FF07C086EB79
:1003600090E0BAD3C82F8930A0F525C04091D000C5
:100370005091D10086FF0BC0A6EBB0E0FA01862FAA
:100380008A0F94919D9331968A13FBCF09C0DA01AD
:10039000E6EBF0E0862F8E0F9D9191938E13FCCFAC
:1003A0002FEF2C0F30E02F5F3F4F240F351F30937E
:1003B000D1002093D0006C2F86EB90E04ED0CC5F24
:1003C000CC3071F02FEF3FEF30936100209360004D
:1003D00007C08FEF9FEF9093610080936000CEE1A4
:1003E000C093620084E196B3957031F48150D9F7DF
:1003F0001092D3001092CC00C1E08111C0E0809136
:1004000064008C1729F0C11101C0A4D3C09364000B
:10041000DF91CF91089585B7826085BF8BB78064E7
:100420008BBF8BE48093C1008AE58093C000089560
:10043000A82FB92F80E090E041E050EA609530E0CD
:1004400009C02D9182279795879510F084279527CD
:10045000305EC8F36F5FA8F30895EADF8D939D9334
:100460000895A6E088279927AA9569F00197E1F3F6
:10047000B099FCCFB09BFECF81E09927A6B301963F
:1004800011F0A570D9F70895CF93CFB7CF93C39547
:10049000B09BE9F7B09B10C0B09B0EC0B09B0CC0E6
:1004A000B09B0AC0B09B08C0B09B06C0C091CF00F3
:1004B000C395C093CF00D5C00F92DF93C091CE00FB
:1004C000DD27CA52DF4F012EB09B03C0DF910F9092
:1004D000E1CF2F930F931F934F932FEF4F6F06B3DF
:1004E00000FB20F95F933F9350E03BE065C016B3FB
:1004F0000126502950FDC89556B3012700FB25F968
:100500002F7306B3B1F05027102710FB26F906B25F
:100510002230F0F000C016B3012700FB27F90126B6
:10052000502906B22430E8F54F77206816B3000052
:10053000F6CF50274F7D206206B2102F000000C07A
:1005400006B300265029102710FB26F906B2E2CF89
:100550004F7B06B3206400C0DACF01265029157006
:1005600006B269F14E7F2160012F16B328C0002624
:1005700050294D7F06B22260102F29C00126502934
:100580004B7F06B22460012F2DC016B301265029DF
:10059000477F2860000006B22EC04F7E06B3206160
:1005A00030C0422706B3499300265029102706B2CF
:1005B0004FEF10FB20F9297F16B379F2157059F12E
:1005C0000126502906B2012700FB21F9237F06B33B
:1005D00071F2002650293150D0F006B2102710FBDE
:1005E00022F9277E16B351F201265029012700FB7C
:1005F00006B223F92F7C49F2000006B3102710FB46
:1006000024F90026502906B22F7939F270CF10E470
:100610001ABF002719C03B503195C31BD04010E4CE
:100620001ABF0881033C09F10B34F9F02091CC008A
:100630001981110F1213EDCF4A81441F093651F170
:100640000D3211F0013E29F70093D4003F915F91E4
:100650004F911F910F912F91DF910F90CAB7C6FD57
:1006600016CFCF91CFBFCF9118952091D4002223E0
:1006700069F31091D200112379F534307AF1309377
:10068000D2002093CD001091CE003BE0311B30937F
:10069000CE0024C00091D2000130F4F40AE54F707E
:1006A00049F43091620034FD1AC000936200C5EB3A
:1006B000D0E019C03091C00034FD11C00093C000DB
:1006C000C1ECD0E010C0052710E000C021C0052714
:1006D00010E0C89508BB14C03AE501C032ED032E06
:1006E000C0E0D0E032E017B31560C09A08B317BB82
:1006F00055E020E84FEF20FF052708BB2795179509
:100700001C3F28F700004552B0F720FF052727952A
:1007100008BB17951C3FB8F629913A9561F70A7FF7
:100720001091D300110F08BBC250D04011F01093AC
:10073000CC0010E41ABF016017B31A7F402F4A7F24
:1007400054E05A95F1F708BB17BB48BB7FCFE1993E
:10075000FECF80E090E028D7E199FECFAB01BC014D
:100760004F5F5F4F6F4F7F4F80E090E03EC7EF924B
:100770000F931F93CF93DF93EADFE199FECF40E21F
:1007800050E066E070E08DE890E0F6D6E199FECFAB
:1007900086E290E00ED7EC01C13081E0D80710F07E
:1007A000C0E0D1E0E199FECF84E090E0F5D6E82EFC
:1007B000E199FECF80E090E0F7D68B019C010150DB
:1007C000110921093109AE016DE870E081E890E07E
:1007D0006CD580E2EDE8F0E0DF011D928A95E9F743
:1007E00010928C0010928B00DF91CF911F910F918E
:1007F000EF90089552E346B34072242F30E0852FE6
:100800005150882331F086B3807290E02817390761
:10081000B1F35F3F29F481E0442319F080E00895AB
:100820008FEF0895CF93FC0180818076803259F557
:100830008181823009F170F4813009F0E1C088E6ED
:1008400090E09093D1008093D000109268001092B5
:100850006A00CAC0893039F08A3009F0D1C083817A
:1008600080936700CDC086819781019709F0C8C049
:1008700080E48093700065C087E690E09093D1009B
:100880008093D000BAC0803409F0BAC0218120938F
:10089000700081E790E09093D1008093D0002036E3
:1008A00009F441C0E0F4263009F44BC070F4243060
:1008B00009F48BC0253009F0A3C088E0EDEAF0E030
:1008C000DF011D928A95E9F79BC0243109F48FC09E
:1008D000253109F48FC0273009F092C07AC025363F
:1008E00009F457C040F4233679F1F0F5223609F0C7
:1008F00087C02DDF85C0273609F461C008F44EC0DB
:10090000293609F07DC033DFE1E8F0E0F093D10053
:10091000E093D000DF010D900020E9F7CD010197B1
:10092000815890406FC082819381813021E092078D
:1009300010F080E091E090938C0080938B001092F7
:1009400071008FEF9FEF5EC0E199FECF80E090E0F5
:100950002BD6609371007093720080937300909314
:10096000740084E090E04EC0E199FECF85E090E015
:1009700013D6C82FE199FECF40E050E0BA0180E0E5
:1009800090E033D6E199FECF61E06C0F85E090E016
:1009900014C0E199FECF85E090E015C082818630D9
:1009A00010F486E0828382818A3010F089E08283AD
:1009B000E199FECF628184E090E009D621C0E199FF
:1009C000FECF84E090E0E8D516C081E08093660019
:1009D00017C08DEA90E09093D1008093D00086817B
:1009E00097818930910570F088E090E00BC082819A
:1009F000FDD406C0FFDE8093710081E090E002C06C
:100A000080E090E0CF9108950F931F93CF93DF93F1
:100A1000162F20917000203431F0203671F02630EE
:100A200009F052C048C0DC018C9190916300891795
:100A300009F44AC08093630047C000917100C091DF
:100A40008B00D0918C00279623E0D695C7952A95E8
:100A5000E1F7202F30E02C173D0750F4462F50E0EF
:100A6000BC01C90183579F4F7ED5100F10937100B1
:100A70008091710090E08C179D0740F1E199FECFC5
:100A8000AE0166E070E08DE890E098D5E199FECF88
:100A900060918B0070918C0086E290E0ABD580E293
:100AA000EDE8F0E0DF011D928A95E9F710928C00E5
:100AB00010928B0009C0693008F018E0412F50E017
:100AC000BC018DEA90E04FD581E001C080E0DF916C
:100AD000CF911F910F910895EF92FF921F93CF93A3
:100AE000DF931F92CDB7DEB77C0180917000813615
:100AF00049F5E199FECF86E290E069835AD52091CD
:100B00007100079633E0969587953A95E1F7992716
:100B100030E0698170E0821B930B681779070CF451
:100B2000CB01182FE199FECFAC015527B9016A5FBF
:100B30007F4FC70121D590917100910F9093710063
:100B4000812F01C080E00F90DF91CF911F91FF9026
:100B5000EF900895DF92EF92FF920F931F93CF9340
:100B6000DF93F894C8E0D0E0F12C40E8E42EDE2CCE
:100B7000DF0CD1BE76DC8C01043389E018070CF45D
:100B8000FD2CE6942197209791F78FEF8F0D81BF71
:100B9000CF2DD0E0219681B790E0C817D9078CF00F
:100BA00060DC8453994097FF03C09195819591092A
:100BB0008017910714F4F1B68C0181B78F5F81BF64
:100BC000EACFF1BE7894DF91CF911F910F91FF9002
:100BD000EF90DF900895DB01FC0155E0149744E0AD
:100BE00018960E9001924A95E1F75A95C1F708952B
:100BF0008F929F92AF92BF92CF92DF920F931F93EB
:100C0000EDB7FEB77C970FB6F894EDBF0FBEFEBFF1
:100C10009F938F9331968F0149015A016B01C8014F
:100C2000C2D1BB2011F4AA2059F0C801B601A1D04D
:100C300030E4C30ED11C32E0931AA108B108F1CF01
:100C4000C801B601A40115D08F919F91B801C3DFEF
:100C5000EDB7FEB77C960FB6F894EDBF0FBEFEBFA2
:100C60001F910F91DF90CF90BF90AF909F908F908A
:100C70000895523090F09F938F937F936F935F937B
:100C80004F9377D04F915F916F917F918F919F910B
:100C9000525030E4630F711DECCFEDB7FEB70FB6C5
:100CA000E054F040F894EDBF0FBEFEBF3196242F04
:100CB00026952695269550FB25F9DB01222329F060
:100CC000122E0D9001921A94E1F730E8032E37E0CE
:100CD000342329F006943A95E9F73C91032A0192CE
:100CE0002395293308F421C030E4321B19F0119206
:100CF0003A95E9F7FF973197BF01FF93EF939F93E1
:100D00008F935F934F9335D04F915F918F919F91C8
:100D1000EF91FF91DC0155963C9132503D9326E0D6
:100D20003C9130403D932A95D9F738E3321B21F0AE
:100D3000112411923A95E9F7DC01549638960D90FA
:100D4000040E02920D90051E029236E00D90011CD9
:100D500002923A95D9F7F897BF010BD0EDB7FEB7DD
:100D60000FB6FF963196F894EDBF0FBEFEBF11246B
:100D70000895AF92BF92CF92DF92EF92FF920F93BE
:100D80001F93CF93DF934DB75EB79A01FB01485590
:100D90005040DA010FB6F8944DBF0FBE5EBF2F93DF
:100DA0003F938F939F93EC01119604E129912D932A
:100DB0000A95E1F75D01FB0100E123812D9322817A
:100DC0002D9321812D9320812D9334960A95A9F797
:100DD0000024102F110F110F1C73D501A10FB11D8D
:100DE000CD90DD90ED90FD90003114F128E005D01C
:100DF00020E203D024E301D00EC0210F2F73D501D0
:100E0000A20FB11D3D91C3263D91D3263D91E3260E
:100E10003D91F32608953F2D331FCC1CDD1CEE1CA5
:100E2000FF1CD501A10FB11DCD92DD92ED92FD9277
:100E3000D50114972D91C20E2D91D21E2D91E21E37
:100E40002D91F21E54976D917D918D919D91292F39
:100E500035E0221F661F771F881F991F3A95C9F733
:100E6000C60ED71EE81EF91EE2E5FFE0E00DF11DFB
:100E70002491201709F40394E6E5FFE0000C000C30
:100E8000E00DF11D069406942591C20E2591D21E07
:100E90002591E21E2591F21EED013C96F695E7950F
:100EA0000995622F0995722F0995822F0995C60E13
:100EB000D71EE81EF21EE501249730E12A912C830B
:100EC0003A95E1F7E5016497C992D992E992F992CE
:100ED000CC80DD80EE80FF802C2D32E02795F794CA
:100EE000E794D794C7943A95C9F7CC82DD82EE8215
:100EF000FF82039500350CF46CCF2497BF91AF911E
:100F000055E0889444E02C913991231F2D934A9504
:100F1000D1F75A95B1F711962C9132E0230F2D930A
:100F200036E02C91211D2D933A95D9F75F914F9181
:100F30000FB6F8944DBF0FBE5EBF1124DF91CF9165
:100F40001F910F91FF90EF90DF90CF90BF90AF90E7
:100F5000089514283C009979825AA1EBD96EDCBC23
:100F60001B8FD6C162CA06C0000017C000000BC0AC
:100F7000000013C02991322F30954B8124234F81DB
:100F80003423232708952991322F4B8124235F8115
:100F90003523232745232427089529913B8123279F
:100FA0003F8123270895DC01E0ECFFE064E17591C7
:100FB0007D936A95E1F768E01D926A95E9F70895D7
:100FC0000123456789ABCDEFFEDCBA987654321029
:100FD000F0E1D2C3CF92DF92EF92FF920F931F9373
:100FE000CF93DF93CDB7DEB7C054D1090FB6F894D5
:100FF000DEBF0FBECDBF7C018E010F5F1F4F80E4AF
:10100000F80111928A95E9F74130F2E05F0730F07C
:101010009A0140E050E0C801EBDD09C0495F5F4F35
:1010200083E0569547958A95E1F7C8019CD26E01F9
:1010300081E4C80ED11CF80196E380818927819351
:10104000EC15FD05D1F7C701AEDFB801C70191DE90
:10105000F8019AE6808189278193EC15FD05D1F787
:10106000ECE1EE0EF11CC7019EDFB801C70181DE85
:10107000C05CDF4F0FB6F894DEBF0FBECDBFDF916F
:10108000CF911F910F91FF90EF90DF90CF90089537
:1010900070CEAF92BF92CF92DF92EF92FF920F93FA
:1010A0001F93CF93DF936C015B01EA018A017B01FF
:1010B000011582E0180740F0B701C6015ADE80E44E
:1010C000E80EF11C1250F4CFAE015170BE01672F33
:1010D0007727669526E0660F771F2A95E1F76A0D58
:1010E0007B1DC601DF91CF911F910F91FF90EF9073
:1010F000DF90CF90BF90AF90BCCD0F931F93CF9355
:10110000DF93EC018B0167DD045E1F4F40EA50E086
:10111000BE01C801AEDDB801CE01DF91CF911F91B4
:101120000F9159CD2F923F924F925F926F927F9283
:101130008F929F92AF92BF92CF92DF92EF92FF92E7
:101140000F931F93CF93DF93CDB7DEB7C056D1096E
:101150000FB6F894DEBF0FBECDBF5C014901170189
:1011600028018E010F5F1F4F80E4F80111928A95CC
:10117000E9F74130F2E05F0730F09A0140E050E0DB
:10118000C80136DD09C0495F5F4FE3E056954795DA
:10119000EA95E1F7C801E7D16E0181E4C80ED11CE0
:1011A000F80196E3808189278193EC15FD05D1F73D
:1011B000C601F9DEB801C601DCDDA20191013401EE
:1011C0002115F2E03F074105510510F1B301C601B9
:1011D0006E962FAF6E976F963FAF6F97A0964FAFFB
:1011E000A097A1965FAFA197C4DDE0E46E0E711CDD
:1011F0006E962FAD6E976F963FAD6F97A0964FADE1
:10120000A097A1965FADA197325041095109D8CF5F
:10121000B201A101517066277727D201C10139E0DF
:10122000B695A795979587953A95D1F71C0166E0F5
:10123000220C331C6A95E1F7280C391CB101C60158
:1012400018DD48019AE6F4018081892781934F01D6
:10125000EC15FD05C1F7BF01C501BDDCC401A3DE6E
:10126000B801C40186DD40EA50E0B501C40101DDEA
:10127000B401C501B0DCC05ADF4F0FB6F894DEBF31
:101280000FBECDBFDF91CF911F910F91FF90EF90D7
:10129000DF90CF90BF90AF909F908F907F906F9096
:1012A0005F904F903F902F900895BF92CF92DF9222
:1012B000EF92FF920F931F93CF93DF93CDB7DEB7DB
:1012C0006C970FB6F894DEBF0FBECDBF6C010887D8
:1012D0001F832E833D831C821B821A821982BE2C9F
:1012E00089E08E1510F499E0B92E10E4E12EF12C6E
:1012F00000E010E09E012F5F3F4FC90113DF8C8992
:101300008F70E1E0F0E0EC0FFD1FE80FF11D408170
:1013100091E0980F01E010E00C0F1D1F090F111D47
:1013200092E0980FA1E0B0E0AC0FBD1FA90FB11D76
:101330008D5F21E030E02C0F3D1F280F311DF9019A
:1013400060817C91D8018C91942F9F7796016115D3
:1013500071058105910529F42F5F3F4F40E3F601A8
:1013600040838901B20E611571058105910541F433
:10137000F8011082F60101900020E9F7329715C0BC
:10138000B016B1F32AE030E040E050E0AED0E62FF6
:101390002D8B3E8B4F8B588F6D897E898F89988DD1
:1013A000E05DD801ED938D01DECFCE16DF0670F43F
:1013B0009081D6018C9198279C9380818927808386
:1013C0009C9198279D936D013197EFCF6C960FB646
:1013D000F894DEBF0FBECDBFDF91CF911F910F916B
:1013E000FF90EF90DF90CF90BF900895F8948F70AA
:1013F0008F3041F083FB85F9886098E1982BC09A83
:1014000091BD81BDFFCF2EE088E190E00FB6F8944A
:10141000A89581BD0FBE21BDFED7B89A80E081504E
:1014200041F0A895E9E3F0E23197F1F700C0000040
:10143000F6CFB8987894BD98C59A00E0C0E0D0E0A7
:1014400052E0F52E67E2E62EDD24D394A89585D6EA
:10145000D1D9182F8F3F41F0011107C0813029F4F5
:1014600086D91093660001C0102F8091C00084FDC2
:1014700002C0012FEBCF809166008823D1F3813029
:1014800019F08230C1F02AC0FE01EF57FF4F808172
:1014900010926800803339F048F08A3338F4835171
:1014A00080936A0005C0E0926A0002C010926A0050
:1014B000F092660015C01092680010926A002196A2
:1014C000FE01EF57FF4F8081811105C01092660029
:1014D000C0E0D0E005C0D092660002C01092660065
:1014E00068E088E690E015D6C4CF052E97FB16F489
:1014F00000940FD057FD05D014D007FC02D046F45D
:1015000008C050954095309521953F4F4F4F5F4F04
:10151000089590958095709561957F4F8F4F9F4F5F
:101520000895A1E21A2EAA1BBB1BFD010DC0AA1F24
:10153000BB1FEE1FFF1FA217B307E407F50720F03C
:10154000A21BB30BE40BF50B661F771F881F991FB7
:101550001A9469F760957095809590959B01AC0100
:10156000BD01CF010895FB01DC0102C001900D9285
:1015700041505040D8F70895DC01CB01FC01E199BE
:10158000FECF06C0FFBBEEBBE09A31960DB20D92C6
:1015900041505040B8F70895E199FECF9FBB8EBBF4
:1015A000E09A99278DB30895A6E1B0E044E050E0B9
:1015B000E5CFA8E1B0E042E050E0E0CFDC01CB01B4
:1015C00002C02D9105D041505040D8F70895262FE4
:1015D000E199FECF1CBA9FBB8EBB2DBB0FB6F89412
:1015E000E29AE19A0FBE01960895242FF1DF252F8C
:0E15F000EFDF00C0ECDF272FEBCFF894FFCF2A
:0415FE00FFFF5AFF92
:00000001FF
