:100000006CC086C03FC284C083C082C081C080C033
:100010007FC07EC07DC07CC07BC07AC079C0090231
:1000200022000101008032090400000103010100E7
:10003000092101010001223F000705810308000A90
:100040001201100100000008424231E100010102EA
:1000500000012A036C00610062006F0072007400EE
:10006000610067006500320030003100330020007D
:10007000620061006400670065001E0364006100A7
:1000800073002D006C00610062006F0072002E0092
:100090006F00720067000403090405010906A1014D
:1000A00075019508050719E029E71500250181026A
:1000B0009501750881039505750105081901290544
:1000C0009102950175039103950675081500256544
:1000D0000507190029658100C00011241FBECFE566
:1000E000D2E0DEBFCDBF10E0A0E6B0E0E6E8F6E18A
:1000F00002C005900D92A436B107D9F720E0A4E61E
:10010000B0E001C01D92AC3EB207E1F785D9B9CA93
:1001100077CFCF93C62F2091C00024FF1BC0209122
:10012000C10038E823272093C100A2ECB0E09C0175
:10013000F90191919D939F019C2F9E1B980F191679
:10014000BCF36C2F82EC90E086D1CC5FC093C000F2
:10015000CF9108952AE52093C000E7CFCF93DF9396
:100160006091D200635067FDC2C08091CE00CCE0A8
:10017000D0E0C81BD109CA52DF4F8091CD008D322B
:1001800009F007C1683009F0B0C083EC8093B50076
:100190008AE580936200109265008881807671F014
:1001A000CE0126D38F3F980709F493C02E813F815B
:1001B0002817390708F095C0C90193C09A81109299
:1001C000BE00898181110BC01092BF002EEB30E080
:1001D00082E090E03093D1002093D000E7CF8530CB
:1001E00039F49093D3002EEB30E090E080E0F2CF32
:1001F000863009F056C08B81813061F480E490E054
:100200009093D1008093D00082E190E020E420938D
:100210006500CCCF823049F48EE190E09093D1001C
:100220008093D00082E290E0F1CF833009F5911104
:1002300009C086E990E09093D1008093D00084E0DB
:1002400090E0E4CF913049F48AE790E09093D100B8
:100250008093D0008CE190E0D9CF9230F9F482E520
:1002600090E09093D1008093D00088E290E0CECFD0
:10027000813249F480E390E09093D1008093D000E4
:1002800089E090E0C3CF823249F48AE990E090930C
:10029000D1008093D0008FE390E0B8CF90E080E071
:1002A000B5CF883071F0893019F49093D5009BCF89
:1002B0008A3061F08B3009F096CF8BE48093C100D7
:1002C00092CF25ED30E081E090E084CF2EEB30E05E
:1002D000FACF288127FF02C08E819F8120E82093DA
:1002E000650090936100809360001092D20080912D
:1002F000620084FF36C080916000909161008F3F62
:10030000980779F1BC018930910510F068E070E040
:10031000861B970B90936100809360008091B500DD
:1003200098E889278093B500C62F662359F020915D
:10033000650027FF42C086EB90E0B9D3C82F893013
:1003400008F061C06C2F86EB90E085D0CC5FCC309C
:1003500031F08FEF9FEF9093610080936000C09326
:10036000620084E196B3987131F48150D9F710920C
:10037000D3001092CC00C1E08111C0E090916400E4
:10038000C91721F08111C9D3C0936400DF91CF91C7
:1003900008958091650087FFA8CFCE0124D38F3FB9
:1003A00021F48EE180936200A0CF882309F49DCFD1
:1003B000109261001092600098CF8091D0009091CF
:1003C000D10026FF16C0FC01A6EBB0E0262F280FB7
:1003D00034913D9331962E13FBCF2FEF2C0F30E04D
:1003E0002F5F3F4F820F931F9093D1008093D000D7
:1003F000A9CFA6EBB0E0FC01262F280F31913D9349
:100400002E13FCCFEACF8FEF9FEF90936100809384
:100410006000CEE1A4CFAC9A8BB780628BBFE0ECDA
:10042000F0E08BE481838AE580830895A82FB92FBB
:1004300080E090E041E050EA609530E009C02D9105
:1004400082279795879510F084279527305EC8F30B
:100450006F5FA8F30895EADF8D939D930895A6E05A
:1004600088279927AA9569F00197E1F3B399FCCF02
:10047000B39BFECF81E09927A6B3019611F0A87136
:10048000D9F70895CF93CFB7CF93C395B39BE9F72F
:10049000B39B10C0B39B0EC0B39B0CC0B39B0AC0F0
:1004A000B39B08C0B39B06C0C091CF00C395C09357
:1004B000CF00D5C00F92DF93C091CE00DD27CA5286
:1004C000DF4F012EB39B03C0DF910F90E1CF2F933D
:1004D0000F931F934F932FEF4F6F06B303FB20F93A
:1004E0005F933F9350E03BE065C016B3012650296F
:1004F00053FDC89556B3012703FB25F92F7306B3A7
:10050000B1F05027102713FB26F906B22230F0F085
:1005100000C016B3012703FB27F90126502906B2B4
:100520002430E8F54F77206816B30000F6CF502747
:100530004F7D206206B2102F000000C006B30026D7
:100540005029102713FB26F906B2E2CF4F7B06B3E2
:10055000206400C0DACF01265029187106B269F173
:100560004E7F2160012F16B328C0002650294D7FF1
:1005700006B22260102F29C0012650294B7F06B2F7
:100580002460012F2DC016B301265029477F286013
:10059000000006B22EC04F7E06B3206130C0422755
:1005A00006B3499300265029102706B24FEF13FBDC
:1005B00020F9297F16B379F2187159F101265029D3
:1005C00006B2012703FB21F9237F06B371F200264F
:1005D00050293150D0F006B2102713FB22F9277EA4
:1005E00016B351F201265029012703FB06B223F965
:1005F0002F7C49F2000006B3102713FB24F90026D4
:10060000502906B22F7939F270CF10E21ABF0027B5
:1006100019C03B503195C31BD04010E21ABF08816E
:10062000033C09F10B34F9F02091CC001981110F32
:100630001213EDCF4A81441F093651F10D3211F0EA
:10064000013E29F70093D4003F915F914F911F9194
:100650000F912F91DF910F90CAB7C5FD16CFCF91A3
:10066000CFBFCF9118952091D400222369F3109128
:10067000D200112379F534307AF13093D2002093EF
:10068000CD001091CE003BE0311B3093CE0024C052
:100690000091D2000130F4F40AE54F7049F4309132
:1006A000620034FD1AC000936200C5EBD0E019C0AF
:1006B0003091C00034FD11C00093C000C1ECD0E007
:1006C00010C0052710E000C021C0052710E0C89524
:1006D00008BB14C03AE501C032ED032EC0E0D0E003
:1006E00032E017B31861C39A08B317BB58E120E88A
:1006F0004FEF20FF052708BB279517951C3F28F7CC
:1007000000004552B0F720FF0527279508BB179535
:100710001C3FB8F629913A9561F7077E1091D300F6
:10072000110F08BBC250D04011F01093CC0010E262
:100730001ABF086017B3177E402F477E54E05A95C2
:10074000F1F708BB17BB48BB7FCFE199FECF80E034
:1007500090E06ED7E199FECFAB01BC014F5F5F4FD8
:100760006F4F7F4F80E090E084C7EF920F931F930D
:10077000CF93DF93EADFE199FECF40E250E066E0FD
:1007800070E08DE890E03CD7E199FECF86E290E002
:1007900054D7EC01C13081E0D80710F0C0E0D1E0BF
:1007A000E199FECF84E090E03BD7E82EE199FECFBF
:1007B00080E090E03DD78B019C0101501109210997
:1007C0003109AE016DE870E081E890E06CD5EDE8AC
:1007D000F0E080E2DF011D928A95E9F710928C002B
:1007E00010928B00DF91CF911F910F91EF900895A0
:1007F000CF93FC0180818076803289F581818230BF
:1008000029F128F4813059F090E080E09FC08930D0
:1008100099F08A30C9F7838180936700F5CF88E625
:1008200090E09093D1008093D000109268001092D5
:100830006A0088E090E08AC086819781019721F75D
:1008400080E4809370008FEF9FEF80C087E690E098
:100850009093D1008093D00081E090E077C0803405
:1008600099F691819093700021E730E03093D100A8
:100870002093D000903609F44AC038F5963019F329
:1008800070F4943009F496C0953009F0BDCFEDEACC
:10089000F0E088E0DF011D928A95E9F7B5CF943149
:1008A00009F48CC0953109F48CC0973009F0ACCFB5
:1008B0008DEA90E09093D1008093D000868197815B
:1008C0008930910508F442C0B4CF953609F456C07A
:1008D00040F4933661F1E0F5923609F095CF35DFBB
:1008E00093CF973609F461C008F450C0993609F0E7
:1008F0008BCF3BDFE1E8F0E0F093D100E093D00054
:1009000001900020E9F7CF01825890401FC08281FA
:100910009381813021E0920738F490938C0080938A
:100920008B00109271008FCF80E091E0F6CFE199BB
:10093000FECF80E090E07CD66093710070937200EF
:10094000809373009093740084E090E0CF910895B9
:10095000E199FECF85E090E063D6C82FE199FECF04
:1009600040E050E0BA0180E090E083D6E199FECF0C
:1009700061E06C0F85E090E06ED646CFE199FECF46
:1009800085E090E04DD68093710066CF82818630FD
:1009900040F486E08283E199FECF628184E090E0BA
:1009A000EBCF8A30C0F389E0F5CFE199FECF84E048
:1009B00090E0E8CF81E08093660026CF82811FD54A
:1009C00023CF92E386B3382F3170292F9150222301
:1009D00021F026B321703217C1F3809581709F3FBB
:1009E00091F28FEFD0CF0F931F93CF93DF93C62F4A
:1009F00020917000203459F0203691F0263009F40F
:100A00004CC081E0DF91CF911F910F910895DC01DF
:100A10008C91909163008917A1F380936300F1CFCB
:100A2000D09171002D2F30E000918B0010918C003F
:100A3000095F1F4F43E0169507954A95E1F7201788
:100A4000310770F4462F50E0BC01C90183579F4F16
:100A5000CED5CD0FC093710080E0C017110690F283
:100A6000E199FECFA80166E070E08DE890E0EAD55C
:100A7000E199FECF60918B0070918C0086E290E04E
:100A8000FDD5EDE8F0E080E2DF011D928A95E9F7FF
:100A900010928C0010928B00B4CF693008F0C8E03F
:100AA0004C2F50E0BC018DEA90E0A1D5AACF1F9356
:100AB000CF93DF93EC01162F80917000813659F5AA
:100AC000E199FECF86E290E0B8D520917100AC01AB
:100AD000495F5F4F83E0569547958A95E1F7622F0E
:100AE00070E0812F90E0421B550B841795070CF4A2
:100AF000AC01142FE199FECF55276A5F7F4FCE01DD
:100B00007FD580917100810F80937100812FDF91DB
:100B1000CF911F91089510E0F9CFDF92EF92FF92ED
:100B20000F931F93CF93DF93F89408E010E0C0E099
:100B3000D0E8DD2EDC0ED1BE92DC7C0184E3E81629
:100B400089E0F8060CF4CD2DD6950150110989F7EE
:100B50008FEF8C0F81BF0C2F10E00F5F1F4F81B7FD
:100B60008017110659F054F0C1BF7894DF91CF91EE
:100B70001F910F91FF90EF90DF90089570DC8453E8
:100B8000994097FF03C09195819591098E159F0516
:100B900014F4C1B77C0181B78F5F81BFE0CFDB0167
:100BA000FC0155E0149744E018960E9001924A9586
:100BB000E1F75A95C1F708958F929F92AF92BF9235
:100BC000CF92DF920F931F93EDB7FEB77C970FB6CE
:100BD000F894EDBF0FBEFEBF9F938F9331968F01A8
:100BE00049015A016B01C801C2D1BB2011F4AA20EE
:100BF00059F0C801B601A1D030E4C30ED11C32E0D7
:100C0000931AA108B108F1CFC801B601A40115D00B
:100C10008F919F91B801C3DFEDB7FEB77C960FB6F9
:100C2000F894EDBF0FBEFEBF1F910F91DF90CF90E4
:100C3000BF90AF909F908F900895523090F09F9307
:100C40008F937F936F935F934F9377D04F915F9183
:100C50006F917F918F919F91525030E4630F711D7E
:100C6000ECCFEDB7FEB70FB6E054F040F894EDBF0F
:100C70000FBEFEBF3196242F26952695269550FB54
:100C800025F9DB01222329F0122E0D9001921A94EE
:100C9000E1F730E8032E37E0342329F006943A9543
:100CA000E9F73C91032A01922395293308F421C0E6
:100CB00030E4321B19F011923A95E9F7FF9731971A
:100CC000BF01FF93EF939F938F935F934F9335D023
:100CD0004F915F918F919F91EF91FF91DC0155961C
:100CE0003C9132503D9326E03C9130403D932A9513
:100CF000D9F738E3321B21F0112411923A95E9F724
:100D0000DC01549638960D90040E02920D90051E4B
:100D1000029236E00D90011C02923A95D9F7F897AD
:100D2000BF010BD0EDB7FEB70FB6FF963196F89422
:100D3000EDBF0FBEFEBF11240895AF92BF92CF92B8
:100D4000DF92EF92FF920F931F93CF93DF934DB7F4
:100D50005EB79A01FB0148555040DA010FB6F8948E
:100D60004DBF0FBE5EBF2F933F938F939F93EC01B8
:100D7000119604E129912D930A95E1F75D01FB019C
:100D800000E123812D9322812D9321812D932081B8
:100D90002D9334960A95A9F70024102F110F110FE7
:100DA0001C73D501A10FB11DCD90DD90ED90FD908C
:100DB000003114F128E005D020E203D024E301D073
:100DC0000EC0210F2F73D501A20FB11D3D91C32677
:100DD0003D91D3263D91E3263D91F32608953F2D85
:100DE000331FCC1CDD1CEE1CFF1CD501A10FB11D57
:100DF000CD92DD92ED92FD92D50114972D91C20E08
:100E00002D91D21E2D91E21E2D91F21E54976D91BF
:100E10007D918D919D91292F35E0221F661F771FAF
:100E2000881F991F3A95C9F7C60ED71EE81EF91EEE
:100E3000EAE1FFE0E00DF11D2491201709F403948D
:100E4000EEE1FFE0000C000CE00DF11D06940694AD
:100E50002591C20E2591D21E2591E21E2591F21EEA
:100E6000ED013C96F695E7950995622F0995722F4D
:100E70000995822F0995C60ED71EE81EF21EE501C0
:100E8000249730E12A912C833A95E1F7E5016497A4
:100E9000C992D992E992F992CC80DD80EE80FF80F0
:100EA0002C2D32E02795F794E794D794C7943A9580
:100EB000C9F7CC82DD82EE82FF82039500350CF407
:100EC0006CCF2497BF91AF9155E0889444E02C916A
:100ED0003991231F2D934A95D1F75A95B1F7119661
:100EE0002C9132E0230F2D9336E02C91211D2D9370
:100EF0003A95D9F75F914F910FB6F8944DBF0FBE59
:100F00005EBF1124DF91CF911F910F91FF90EF9061
:100F1000DF90CF90BF90AF90089514283C0099794E
:100F2000825AA1EBD96EDCBC1B8FD6C162CA06C047
:100F3000000017C000000BC0000013C02991322F21
:100F400030954B8124234F81342323270895299101
:100F5000322F4B8124235F813523232745232427E8
:100F6000089529913B8123273F8123270895DC01A0
:100F7000E8E8FFE064E175917D936A95E1F768E048
:100F80001D926A95E9F708950123456789ABCDEF76
:100F9000FEDCBA9876543210F0E1D2C3AF92BF9221
:100FA000CF92DF92EF92FF920F931F93CF93DF9335
:100FB000CDB7DEB7C054D1090FB6F894DEBF0FBE6F
:100FC000CDBF7C018E010F5F1F4F80E4F8011192AD
:100FD0008A95E9F74130F2E05F07E8F19A0150E0C5
:100FE00040E0C801E9DD68015E0181E4A80EB11CA2
:100FF000F80196E38191DF01119789278C93EA1517
:10100000FB05C1F7C701B3DFB801C70196DE9AE659
:10101000F60181916F01319789278083CA14DB041F
:10102000B9F7FCE1EF0EF11CC701A1DFB801C70160
:1010300084DEC05CDF4F0FB6F894DEBF0FBECDBFBD
:10104000DF91CF911F910F91FF90EF90DF90CF90A4
:10105000BF90AF900895495F5F4F83E056954795E5
:101060008A95E1F7C801C3D2BECF67CEAF92BF92D7
:10107000CF92DF92EF92FF920F931F93CF93DF9364
:101080007C018B01EA016A015B01C11482E0D80690
:10109000F8F49E01232F33272695C90160E07EEFE7
:1010A00037D2AC014C0F5D1FB90196E0660F771F78
:1010B0009A95E1F7600F711FC701DF91CF911F91E2
:1010C0000F91FF90EF90DF90CF90BF90AF90B5CD94
:1010D000B501C70132DE80E4A80EB11C82E0D81A47
:1010E000D4CF0F931F93CF93DF938C01EB0157DD88
:1010F0006C9640EA50E0B801CE019FDDBE01C80108
:10110000DF91CF911F910F914ACD2F923F924F9235
:101110005F926F927F928F929F92AF92BF92CF9287
:10112000DF92EF92FF920F931F93CF93DF93CDB790
:10113000DEB7C056D1090FB6F894DEBF0FBECDBFE3
:101140006F969FAF8EAF6F97A1963FAF2EAFA197CF
:1011500047015801CE0101966C0180E4F60111921D
:101160008A95E9F74130F2E05F0708F487C09A01F9
:1011700050E040E0C60120DD86011E0181E4280E1A
:10118000311CF60196E38191DF01119789278C9339
:10119000E215F305C1F7C101EADEB601C101CDDDFB
:1011A00024013501A196EEACFFACA1974114F2E009
:1011B0005F066104710408F06BC02401350189E009
:1011C00076946794579447948A95D1F720E03EEF40
:1011D0004FEF5FEFC301B201ACD1AB01BC01480DD1
:1011E000591D6A1D7B1D96E0440C551C9A95E1F72C
:1011F000A1968EAD9FADA197480E591EB201C101B7
:101200001CDD9AE6F80181918F013197892780834F
:1012100002151305B9F7B8016F968EAD9FAD6F97A4
:10122000BEDCC801A4DEB601C80187DD40EA50E09B
:101230006F966EAD7FAD6F97C801FFDCB8016F96FA
:101240008EAD9FAD6F97ABDCC05ADF4F0FB6F894F1
:10125000DEBF0FBECDBFDF91CF911F910F91FF90E9
:10126000EF90DF90CF90BF90AF909F908F907F9046
:101270006F905F904F903F902F900895495F5F4F20
:1012800023E0569547952A95E1F7C601B0D174CF72
:10129000B701C10152DD90E4E90EF11CE2E05E1AF3
:1012A0006108710883CFBF92CF92DF92EF92FF92D5
:1012B0000F931F93CF93DF93CDB7DEB76C970FB625
:1012C000F894DEBF0FBECDBF6C01FB01BE2CC9017F
:1012D000B80164D16D837E838F8398871C821B82C3
:1012E0001A82198210E4E12EF12C00E010E09E0138
:1012F0002F5F3F4FBF01C90108DFEC89EF70A1E00C
:10130000B0E0AC0FBD1FAE0FB11D4C91A1E0AE0F10
:1013100081E090E08C0F9D1F8A0F911DDC0122E07F
:101320002E0F81E090E08C0F9D1F820F911D9C017C
:10133000ED5F81E090E08C0F9D1F8E0F911DFC01F1
:101340006081F90170818C91942F9F7761157105EF
:101350008105910529F12B2D2A3008F029E086011D
:10136000B22EBC0CB01601F12AE030E040E050E0B3
:10137000F9D0E62F2D8B3E8B4F8B588F698F7A8F4C
:101380008B8F9C8F6D897E898F89988DE05DD801C8
:10139000ED938D01611571058105910519F704C063
:1013A00080E3D6018D938D01F8011082F601019042
:1013B0000020E9F73297D601CE16DF0680F06C9652
:1013C0000FB6F894DEBF0FBECDBFDF91CF911F9156
:1013D0000F91FF90EF90DF90CF90BF9008958FEF27
:1013E000C81AD80A8C9190818927D6018E93908152
:1013F000892780839C9189278C933197DCCFF8943F
:101400008F708F3041F083FB85F9886098E1982BCD
:10141000C39A91BD81BDFFCF88E19EE00FB6F894DD
:10142000A89581BD0FBE91BDF6D7BB9A80E08150D3
:10143000A1F5BB987894B898C09AC12CD12C7601AC
:1014400010E000E0D0E0C0E082E0A82E97E2992E04
:10145000BB24B394A89582D68091C00084FF39C084
:10146000F1E1CF16F8E9DF06F2E0EF06F10488F1CA
:1014700080916600811108C0033011052CF475D9E4
:10148000B09266000F5F1F4F80916600813069F057
:10149000823059F11092660018C0A895E9E3F0E295
:1014A0003197F1F700C00000C2CFFE01EF57FF4FA8
:1014B000808110926800803391F0A4F08A3394F414
:1014C000835180936A00A092660068E088E690E00D
:1014D00020D68FEFC81AD80AE80AF80ABBCF909234
:1014E0006A00F1CF10926A00EECF1092680010925D
:1014F0006A002196FE01EF57FF4F8081811105C0E0
:1015000010926600D0E0C0E0E0CFB0926600DDCF80
:101510000024552704C0080E591F880F991F0097F3
:1015200029F076956795B8F37105B9F7802D952F59
:101530000895EE27FF27AA27BB2708C0A20FB31FD5
:10154000E41FF51F220F331F441F551F96958795E3
:101550007795679598F37040A9F7009799F7BD01C3
:10156000CF010895052E97FB16F400940FD057FD78
:1015700005D01BD007FC02D046F408C0509540951A
:10158000309521953F4F4F4F5F4F0895909580952F
:10159000709561957F4F8F4F9F4F089569279627CC
:1015A00069277827872778270895A1E21A2EAA1B92
:1015B000BB1BFD010DC0AA1FBB1FEE1FFF1FA21703
:1015C000B307E407F50720F0A21BB30BE40BF50B00
:1015D000661F771F881F991F1A9469F76095709589
:1015E000809590959B01AC01BD01CF010895FB0151
:1015F000DC0102C001900D9241505040D8F708958F
:10160000DC01CB01FC01E199FECF06C0FFBBEEBBC4
:10161000E09A31960DB20D9241505040B8F70895BE
:10162000E199FECF9FBB8EBBE09A99278DB30895B9
:10163000A6E1B0E044E050E0E5CFA8E1B0E042E050
:1016400050E0E0CFDC01CB0102C02D9105D041502C
:101650005040D8F70895262FE199FECF1CBA9FBBC2
:101660008EBB2DBB0FB6F894E29AE19A0FBE01969D
:101670000895242FF1DF252FEFDF00C0ECDF272FA7
:06168000EBCFF894FFCF50
:04168600FFFF5AFF09
:00000001FF
